{
  "contractName": "MetaCoin",
  "abi": [
    {
      "constant": true,
      "inputs": [],
      "name": "owner",
      "outputs": [
        {
          "name": "",
          "type": "address"
        }
      ],
      "payable": false,
      "stateMutability": "view",
      "type": "function"
    },
    {
      "inputs": [],
      "payable": false,
      "stateMutability": "nonpayable",
      "type": "constructor"
    },
    {
      "constant": false,
      "inputs": [],
      "name": "pay",
      "outputs": [
        {
          "name": "sufficient",
          "type": "bool"
        }
      ],
      "payable": true,
      "stateMutability": "payable",
      "type": "function"
    }
  ],
  "bytecode": "0x608060405234801561001057600080fd5b50336000806101000a81548173ffffffffffffffffffffffffffffffffffffffff021916908373ffffffffffffffffffffffffffffffffffffffff16021790555061018c806100606000396000f30060806040526004361061004c576000357c0100000000000000000000000000000000000000000000000000000000900463ffffffff1680631b9265b8146100515780638da5cb5b14610073575b600080fd5b6100596100ca565b604051808215151515815260200191505060405180910390f35b34801561007f57600080fd5b5061008861013b565b604051808273ffffffffffffffffffffffffffffffffffffffff1673ffffffffffffffffffffffffffffffffffffffff16815260200191505060405180910390f35b60008060009054906101000a900473ffffffffffffffffffffffffffffffffffffffff1673ffffffffffffffffffffffffffffffffffffffff166108fc349081150290604051600060405180830381858888f19350505050158015610133573d6000803e3d6000fd5b506001905090565b6000809054906101000a900473ffffffffffffffffffffffffffffffffffffffff16815600a165627a7a723058205f2070b452915554c91c6cda23f2faf8117148f8366a6c700c7900244e7f80d20029",
  "source": "pragma solidity ^0.4.17;\n\ncontract MetaCoin {\n\taddress public owner;\n\n\tconstructor() public {\n\t\towner = msg.sender;\n\t}\n\t\n\tfunction pay() payable public returns(bool sufficient) {\n\t\towner.transfer(msg.value);\n        return true;\n    }\n}\n",
  "sourcePath": "/Users/trefethen/Documents/capstone/nike-crypto/contracts/MetaCoin.sol",
  "compiler": {
    "name": "solc",
    "version": "0.4.24+commit.e67f0147.Emscripten.clang"
  },
  "schemaVersion": "2.0.0",
  "updatedAt": "2018-06-19T04:22:55.607Z"
}